:020000040800F2
:1000000030070020CD010008D5010008D701000805
:10001000D9010008DB010008DD0100080000000034
:10002000000000000000000000000000DF010008E8
:10003000E101000800000000E3010008E5010008FC
:10004000E7010008E7010008E7010008E7010008F0
:10005000E7010008E701000889040008E70100083B
:10006000E7010008E7010008B5040008E7010008FF
:10007000E7010008E7010008E7010008E7010008C0
:10008000E7010008E7010008E7010008E7010008B0
:10009000E7010008E7010008E7010008E7010008A0
:1000A000E7010008E7010008E7010008E701000890
:1000B000E7010008590F0008E7010008E701000800
:1000C000E7010008E7010008E7010008E701000870
:1000D000E7010008E7010008E7010008E701000860
:1000E000E7010008E7010008E7010008E701000850
:1000F000E7010008E7010008E7010008E701000840
:10010000E7010008E7010008E7010008E70100082F
:10011000E7010008E7010008E7010008E70100081F
:10012000E7010008E7010008E7010008E70100080F
:1001300000F002F800F03AF80AA090E8000C8244BF
:100140008344AAF10107DA4501D100F02FF8AFF29C
:10015000090EBAE80F0013F0010F18BFFB1A43F0A5
:1001600001031847FC2000001C210000103A24BFA6
:1001700078C878C1FAD8520724BF30C830C144BF0C
:1001800004680C607047000000230024002500264E
:10019000103A28BF78C1FBD8520728BF30C148BFEA
:1001A0000B6070471FB51FBD10B510BD00F05CF8A7
:1001B0001146FFF7F7FF01F059F900F07AF803B4A0
:1001C000FFF7F2FF03BC00F07BF80000094880470E
:1001D00009480047FEE7FEE7FEE7FEE7FEE7FEE729
:1001E000FEE7FEE7FEE7FEE704480549054A064B41
:1001F00070470000F90E00083101000830010020AE
:100200003007002030030020300300204FF00002B0
:1002100000B5134694469646203922BFA0E80C50FC
:10022000A0E80C50B1F12001BFF4F7AF090728BFD7
:10023000A0E80C5048BF0CC05DF804EB890028BF53
:1002400040F8042B08BF704748BF20F8022B11F07C
:10025000804F18BF00F8012B7047704770477047F8
:1002600000487047D00000207546FFF7F9FFAE4602
:1002700005006946534620F00700854618B020B5B2
:10028000FFF7B2FFBDE820404FF000064FF0000737
:100290004FF000084FF0000B21F00701AC46ACE82E
:1002A000C009ACE8C009ACE8C009ACE8C0098D469B
:1002B00070470446AFF300802046FFF780FF000040
:1002C00001491820ABBEFEE72600020070472DE969
:1002D000F04705460C4616464FF001092188228951
:1002E000891AE38862899A1A5143A2882389D31A0A
:1002F00067886289BA1A03FB121001F064FBC6E931
:100300000C0100221346D6E90C71384601F0F2FACE
:1003100002D14FF0000989E029882A89891AE388E7
:1003200062899A1A5143AA882B89D31A67886289ED
:10033000BA1A03FB121001F046FBC6E9000121883E
:100340002289891AAA882B89D21A51432A88D21A5B
:10035000A3882789DB1B02FB131001F034FBC6E9DD
:1003600002012189AA885143A2882B8902FB13111B
:100370006288514322885A4323892F8803FB17231D
:10038000E28803FB0212A18879432388AF8803FB2C
:100390001713618903FB012001F015FBC6E9040175
:1003A0006A886989511AE38862899A1A5143EB88ED
:1003B0006A899B1A67886289BA1A03FB121001F0D6
:1003C00002FBC6E9060121882289891AEB886A891D
:1003D0009A1A51436B886A899A1AA3882789DB1B6A
:1003E00002FB131001F0EFFAC6E908012189EA883F
:1003F0005143A3886A8903FB121162885143228802
:100400006B895A4323896F8803FB1723E28803FB18
:100410000213A18879432788EA8807FB12126189B1
:1004200002FB013001F0CFFAC6E90A014846BDE8F7
:10043000F08701B5002008E00C2100BF0A00A1F1FF
:100440000103D9B2FAD1411C88B200998842F3D392
:1004500008BD38B504460D464FF4784001231422F8
:1004600029460090204600F00BFA4FF47840A5F1A1
:100470000A0291B204F10A02009090B21423012200
:1004800000F0FEF938BD000010B50948006818B941
:1004900001200749086006E005480068012802D1EC
:1004A000002003490860012000F012F810BD000090
:1004B0008081214210B5102000F010F828B10120F1
:1004C00002490870102000F003F810BD040000205D
:1004D00001490860704700001404014001460020F3
:1004E0000022074B1B6803EA0102054B14331B680B
:1004F0000B4013B10AB1012000E00020704700005A
:1005000000040140002123498279002A3AD00A469A
:10051000126803689A430B461A600A1D1268036842
:100520009A430B1D1A60027911440A6803681A4342
:100530000A60184A0832126803689A43154B083358
:100540001A601A1D126803689A43124B0C331A6022
:100550004279102A0ED11A1F126803681A430D4BF4
:1005600008331A601A1D126803681A43094B0C33CA
:100570001A600DE00749427911440A6803681A437A
:100580000A6005E0027911440A6803689A430A6028
:10059000704700000004014030B500228B071C0F9B
:1005A0000F2303FA04F20B4B8C1053F824309343BF
:1005B000084C8D1044F8253023468C1053F8243015
:1005C0008C07240F00FA04F42343024C8D1044F8E6
:1005D000253030BD080001402DE9F04102460025DC
:1005E0000026002000230024002791F803C00CF00F
:1005F0000F0591F803C00CF0100CBCF1000F03D0F4
:1006000091F802C04CEA050591F800C0BCF1000F5A
:1006100031D0146800202BE04FF0010C0CFA00F3ED
:10062000B1F800C00CEA03069E4220D183004FF0CF
:100630000F0C0CFA03F7BC4305FA03FC4CEA040464
:1006400091F803C0BCF1280F06D14FF0010C0CFA51
:1006500000FCC2F814C00AE091F803C0BCF1480FD6
:1006600005D14FF0010C0CFA00FCC2F810C0401C80
:100670000828D1D31460B1F800C0BCF1FF0F34DDFD
:10068000546800202EE000F1080C4FF0010808FA31
:100690000CF3B1F800C00CEA03069E4221D183009E
:1006A0004FF00F0C0CFA03F7BC4305FA03FC4CEABD
:1006B000040491F803C0BCF1280F05D100F1080C27
:1006C00008FA0CF8C2F8148091F803C0BCF1480F86
:1006D00007D100F1080C4FF0010808FA0CF8C2F835
:1006E0001080401C0828CED35460BDE8F08102463B
:1006F000002093680B400BB1012000E00020704700
:100700004161704708B50121642000F099FA012089
:10071000ADF800008DF8020010208DF80300694646
:100720001648FFF759FF0420ADF80000694613484A
:10073000FFF752FF0820ADF8000001208DF80200FD
:1007400048208DF8030069460C48FFF745FF4FF439
:100750000050ADF8000001208DF8020010208DF847
:10076000030069460648FFF737FF4FF4005104487D
:10077000FFF7C6FF00F01AFC08BD0000001801409A
:1007800000140140016170472DE9F04F89B08146A6
:100790000C4692464FF0010B14B94FF0000B66E087
:1007A0000022354BDAE90C51284601F0A3F85CD061
:1007B000608801F01FF905463048D0E902733A46D7
:1007C000284601F02BF9CDE90201208801F012F949
:1007D00007462A48D0E900532A46384601F01EF958
:1007E000CDE90001DDE9022300F078FECDE9040146
:1007F0002248D0E904532A46049800F06FFECDE960
:10080000060101F0B3F8A9F80000608801F0F2F8E1
:10081000074688461949D1E908532A46414601F05E
:10082000FDF8CDE90201208801F0E4F8074688468A
:100830001249D1E906532A46414601F0EFF8CDE9C5
:100840000001DDE9022300F049FECDE904010B4976
:10085000D1E90A532A46059900F040FECDE9060188
:1008600001F084F8A9F8020001E04FF0000B5846AF
:1008700009B0BDE8F08F00000000F03F3800002014
:10088000F0B5059D00242A264FF0C0473E80061291
:10089000154F3E80C6B23E808618761EC6F30F26E0
:1008A0003E808618761EF6B23E802B2677073E8065
:1008B0000E120D4F3E80CEB23E80CE18761EC6F38D
:1008C0000F263E80CE18761EF6B23E802C26F70606
:1008D0003E8000BF02E0044E3580641C02FB03F63C
:1008E000A642F8D8F0BD0000000002602DE9F047F4
:1008F00006468846144699460027002525463DB9F8
:100900004B4630224146304600F024F8BDE8F087DF
:1009100003E00A20B5FBF0F57F1C002DF9D115E0AE
:100920000A20B4FBF0F100FB114000F1300A394617
:100930007F1E062202FB0161891F88B24B46524688
:10094000414600F007F80A20B4FBF0F4002CE7D190
:1009500000BFDBE72DE9F04F81468A4615461E466B
:10096000A5F120001FFA80FB0C23062251464846C1
:1009700000F046F82C20C1060880002419E00BEB9B
:100980004B000E4901EB800010F8048000270CE0BA
:1009900008F0010010B10A48068002E00020084972
:1009A00008804FEA6808781C87B2062FF0DB601CCD
:1009B00084B20C2CE3DBBDE8F08F0000EC1D0008D6
:1009C00000000260F0B505460E4614461F4613E0CF
:1009D000B5F59D7F03DD002506F10C0086B2E42EFF
:1009E00001DD0025002622783B4631462846FFF7E8
:1009F000B1FFA81D85B2641C20780028E8D1F0BDA5
:100A000030B52A244FF0C0452C8004120F4D2C80A5
:100A1000C4B22C808418641EC4F30F242C80841864
:100A2000641EE4B22C802B2465072C800C12074D29
:100A30002C80CCB22C80CC18641EC4F30F242C80E4
:100A4000CC18641EE4B22C8030BD000000000260AF
:100A50002A224FF0C0431A8002120A4B1A80C2B2F7
:100A60001A8002121A80C2B21A802B2253071A80EF
:100A70000A12044B1A80CAB21A800A121A80CAB229
:100A80001A8070470000026070B505460E46144695
:100A900031462846FFF7DCFF2C20C10608800148BC
:100AA000048070BD00000260012806D0022821D019
:100AB00003283CD0042874D156E036210A0711805F
:100AC000C8213A4A11802A214FF0C04211800021EA
:100AD000364A118011801180EF2111802B214A07A5
:100AE00011800021314A11801180012111803F21A4
:100AF000118056E036210A07118068212B4A1180A7
:100B00002A214FF0C04211800021284A1180118013
:100B1000012111803F2111802B214A0711800021E2
:100B2000224A118011801180EF21118039E0362195
:100B30000A07118028211D4A11802A214FF0C04246
:100B400011800021194A11801180012111803F215B
:100B500011802B214A0711800021144A1180118035
:100B60001180EF2111801CE036210A0711804821F5
:100B70000E4A11802A214FF0C042118000210B4AF9
:100B8000118011801180EF2111802B214A071180E3
:100B90000021064A11801180012111803F2111801E
:100BA00000BF00BF2C21CA06118070470000026000
:100BB00010B54FF4A06000F039F810BD70B50021F9
:100BC00000230F22C47804B3154C246804F4E064B5
:100BD000C4F5E064210AC1F10403CA40447804FA70
:100BE00003F184781440214309010E4C0678A15585
:100BF000047804F01F050124AC4005786D11AD00A8
:100C000005F1E025C5F8004109E0047804F01F056E
:100C10000124AC40044D0678761145F8264070BD9D
:100C20000CED00E000E400E080E100E00249014357
:100C3000024A1160704700000000FA050CED00E068
:100C400029B1064A92690243044B9A6104E0034ABF
:100C500092698243014B9A61704700000010024084
:100C60002DE9F04397B00025502101A8FFF7CEFAF7
:100C7000002400BF15A916A800F078FB01A916985A
:100C800041F825000BA8159940F82510681CC5B23D
:100C900010213D48FFF72BFD08B90A2DEADB102192
:100CA0003948FFF724FD10B10020384908700A2D9B
:100CB00068D1019E3746DDF82C80C146012411E041
:100CC00001A850F82400B04203DA01A850F82460CB
:100CD00007E001A850F82400B84202DD01A850F84E
:100CE0002470641C0A2CEBDB012411E00BA850F8E3
:100CF0002400404503DA0BA850F8248007E00BA835
:100D000050F82400484502DD0BA850F82490641CDC
:100D10000A2CEBDBDDE9010108440399084404993E
:100D20000844059908440699084407990844089915
:100D30000844099908440A990844801BC01BC0F361
:100D4000CF0013490880DDE90B1001440D980144E0
:100D50000E9801440F9801441098014411980144E1
:100D6000129801441398014414980844A0EB080019
:100D7000A0EB0900C0F3CF0005494880084617B032
:100D8000BDE8F0830020FAE70018014004000020CD
:100D9000820000204FF0E021096921F004014FF0AA
:100DA000E0221161C21700EB5272C2F3C702074B77
:100DB0001A701946097801EB4102C2EBC1114FF6D6
:100DC000FF7202EAC101024A118070470000002050
:100DD0000200002001460D4A12884A434FF0E023EA
:100DE0005A6100229A6101221A6100BF4FF0E0228D
:100DF000106900F001021AB100F48032002AF5D027
:100E000000224FF0E0231A619A617047020000202F
:100E100010B500F001F810BD0CB500200190009055
:100E20003348006840F480303149086000BF3048E2
:100E3000006800F4003000900198401C0190009878
:100E400018B90198B0F5A06FF1D12948006800F4F5
:100E5000003010B10120009001E0002000900098C7
:100E6000012843D12348006840F010002149086060
:100E70000846006820F0030008600846006840F05B
:100E8000020008601A4840681949486008464068EE
:100E900048600846406840F4806048600846406802
:100EA00020F47C1048600846406840F4E810486030
:100EB0000846006840F08070086000BF0C48006879
:100EC00000F000700028F9D00948406820F00300C5
:100ED000074948600846406840F00200486000BF8B
:100EE0000348406800F00C000828F9D10CBD000050
:100EF000001002400020024010B51348006840F086
:100F000001001149086008464068104908400E4930
:100F10004860084600680E4908400B4908600846CA
:100F2000006820F4802008600846406820F4FE0035
:100F300048604FF41F008860FFF76AFF4FF00060C1
:100F40000449086010BD0000001002400000FFF8D6
:100F5000FFFFF6FE08ED00E010B501210B4800F0A0
:100F60001CF888B10121094800F014F80121084853
:100F7000FFF7BDFB20B901210548FFF703FC03E0A3
:100F800001210348FFF7BCFB10BD00000004004036
:100F9000000C0140CA430282704702460020138AB7
:100FA0000B400BB1012000E0002070470EB501217D
:100FB0004120FFF745FE00F01FF81020ADF80800B3
:100FC00028208DF80B0002A90A48FFF705FB042131
:100FD0000846FFF7E1FA1020009000208DF8040089
:100FE0000C208DF8050001208DF806006846FFF7FB
:100FF00089FA0EBD0018014008B54FF4C060FFF734
:1010000015FE0A208DF8000001208DF801008DF8F2
:1010100002008DF803006846FFF7D0FD08BD000010
:101020002DE9F04F8DB00026B14600200B900A90BC
:10103000002432E00020F0234FF4A072014600901B
:10104000FFF71EFC4FF47843B0A26E210846FFF76D
:10105000B9FC4FF47843621C5A21A020FFF746FCEC
:101060004FF4FA70FFF7B6FEAE4A02EB84025188E5
:10107000AC4A32F82400FFF7ECF900BFFFF7F0FDAF
:101080000546002DFAD02888A74921F82400688851
:1010900001EB84014880601CC4B2042CCADBA34A63
:1010A000A149A048FFF713F99F49C88900F0A2FCA5
:1010B00082469E48D0E902733A46504600F0AEFCA4
:1010C000CDE902019849888900F094FC824697484E
:1010D000D0E900733A46504600F0A0FCCDE900018B
:1010E000DDE9022300F0FAF9CDE904018F48D0E9E7
:1010F00004733A46049800F0F1F9CDE906018B49F2
:10110000D1E90C733A46079900F09CFACDE9080141
:1011100000F02CFC86B28449C88900F06BFC824642
:101120008248D0E908733A46504600F077FCCDE992
:1011300002017D49888900F05DFC82467B48D0E948
:1011400006733A46504600F069FCCDE90001DDE93E
:10115000022300F0C3F9CDE904017448D0E90A7311
:101160003A46049800F0BAF9CDE906016F48D0E993
:101170000C733A46069800F065FACDE9080100F0D4
:10118000F5FB1FFA80F967488089B04203DA6548A9
:101190008089301A02E063488089801B80B20B90FE
:1011A0006048C089484504DA5E48C089A9EB000060
:1011B00003E05C48C089A0EB090080B20B900020DE
:1011C000F0234FF4A07201460090FFF759FB0B98F3
:1011D0000A2802DC0A980A2815DD4FF4784354A245
:1011E00064210846FFF7EEFB4FF4784354A27821C0
:1011F0006420FFF7E7FB4FF4FA60FFF7EBFD0120F7
:101200000DB0BDE8F08F49480022504BD0E9007185
:10121000384600F003FC82468B464449D1E90C7302
:101220003A46594600F00EFA494A03C23F49D1E90D
:1012300002710022454B384600F0F0FB82463B48E5
:10124000D0E90C733A46504600F0FCF9404AC2E936
:1012500002013649D1E9047100223C4B384600F0C6
:10126000DDFB82468B463149D1E90C733A4659463B
:1012700000F0E8F9364AC2E904012C480022334B59
:10128000D0E90671384600F0C9FB82462748D0E90C
:101290000C733A46504600F0D5F92D4AC2E90601D2
:1012A00022480022294BD0E90871384600F0B6FBED
:1012B00082461E48D0E90C733A46504600F0C2F907
:1012C000234AC2E9080119480022204BD0E90A71DB
:1012D000384600F0A3FB82461448D0E90C733A4626
:1012E000504600F0AFF91A4AC2E90A0155201949DF
:1012F00008704FF4784318A264210846FFF762FB98
:101300004FF47A70FFF766FD002079E7546F75633C
:10131000682043616C6962726174652E2E2E2E2ED8
:101320002E0000006A0000208800002098000020A5
:1013300043616C696272617465206661696C00006A
:1013400074727920616761696E0000000000F03FEF
:10135000380000206800002043616C69627261748B
:101360006520537563636564000000002DE9F0415A
:1013700004460D46902000F010F806460120FFF7C5
:1013800058F8D02000F009F8074626602F60BDE825
:10139000F08110B5FFF7B6F910BD10B50446204630
:1013A00000F032F800F002F810BD000070B5002423
:1013B00004211448FFF7A4F901211248FFF7E2F9CC
:1013C000002518E001210F48FFF79AF908210D4880
:1013D000FFF78DF908B1012000E000200646C5F1B5
:1013E0000B0006FA00F0204384B201210548FFF704
:1013F000C9F9681CC5B20C2DE4DBC4F30B0420460C
:1014000070BD00000018014070B506460421164862
:10141000FFF776F901211448FFF772F900241FE065
:10142000C4F1070046FA00F000F0010525B10421DF
:101430000D48FFF7A7F903E004210B48FFF760F917
:101440000520FEF7F6FF01210748FFF79BF905206D
:10145000FEF7EFFF01210448FFF752F9601CC4B208
:10146000082CDDDB70BD00000018014008B500BF8E
:1014700000BFFFF741FD4820FFF78CFCFFF798FB0A
:101480000220FFF711FB0020F0234FF4A072014669
:101490000090FFF7F5F9FFF77CFF00BFFFF7C0FDF5
:1014A0000028FBD113E00A48007801280FD1FFF78C
:1014B000D7FB0446074A21460748FFF765F930B1D4
:1014C000054A518810884FF6FF72FFF7DDFAEAE708
:1014D00004000020980000207A00002010B591EA56
:1014E000030F48BF83F0004300F19E83841A71EB21
:1014F000030C05D2121943EB0C03001B61EB0C012A
:10150000DFF824E14FEA1154A4EB135C1EEA430F09
:1015100018BF9EEA445F73D023EA0E03DCF1200E6D
:1015200021EA045143F4801332D322FA0CFE10EB6B
:101530000E0023FA0CFE41EB0E01CCF1200E03FA53
:101540000EFE10EB0E0051F10001B1F5801FCCF141
:10155000200E32D201EB045112FA0EF2BDE8104017
:1015600058BF7047401C38BF5FEA420218BF70473F
:10157000002814BF20F0010041F100014FEA4103AF
:1015800013F5001F38BF7047A1F1C04100F03EBB0A
:10159000012A43EB0302ACF1200CDCF11F0E32BF39
:1015A0004FF0000E23FA0CF310EB030041EB045153
:1015B000B4EB115FD0D0A1EB045101F580114908C3
:1015C0005FEA300001EB04510ED350F1000038BF48
:1015D00012FA0EFE08D1BDE81040C9E7401C38BF22
:1015E0005FEA4202CAD1C3E7BDE810404FEA4103B7
:1015F00013F5001F38BF7047A1F1C04100F006BBD2
:101600009EEA445F08D011EA5E0FBDE8104004BFB7
:1016100001F0004100207047BDE8104070B500F0B7
:10162000A7FA00BF64FBBE3E0000E0FF491058BFB0
:10163000C1F140415B1058BFC3F140438B42EFF30F
:10164000008070472DE9C04130B4DFF8A0C23CEA09
:10165000111418BF3CEA131400F0EC8081EA030572
:101660001CEA111444EAD57418BF1CEA131500F0E3
:10167000C780A4EB05044FF0004545EAC12145EAC7
:10168000C32341EA505143EA525304F17F74994213
:1016900004F500344FEAC0204FEAC22208BF90424E
:1016A00000F09C804FEA13650FF24016765D4FEA1A
:1016B000134506FB05F7C7F1807706FB07F74FEAEE
:1016C000D737A7FB03687642C8F58038A7FB06CE5C
:1016D00038BFA8F1010807FB08E64FF0000EA6FB93
:1016E000028CE6FB03CEDCF1000CCEF1004E38BFDD
:1016F000AEF1010EA6FB0C584FF000074FF00005AD
:10170000E6FB0E87A1FB08C6A0FB07CE16EB0E0674
:1017100045F10005E1FB076515F1E04E7EBFA4F53C
:1017200080345FEA46066D4116F1800745F10005F9
:101730004FEA17274FEA066647EA0567A6F1DE4635
:10174000B6F1805F4FEA15251FD9384624F0010C09
:1017500005EBC471BCF1FE6F01EB0C1102D8F0BCBB
:10176000BDE8008124425CBF01F5801E9EEAC47F73
:1017700002D4F0BCBDE80081244238D4F0BCA1F111
:10178000C041BDE8004100F041BA4FEAD22242EA2E
:1017900043524FEAD323A7FB02864FEAD02040EA08
:1017A000415007FB03661EEA0E0F4FEAD12105FBED
:1017B000026658BFA6EB0056B6EB00564FEA520E33
:1017C0004EEAC37E18EB0E0E56EB530EBDD518EB4A
:1017D00002085E417F1C55F10005B6E74FF4801505
:1017E0004FF000074FF000064FF00008ADE7F0BCE7
:1017F0004FF0000001F1C04101F00041BDE800815F
:1018000011EA0C1F0CEA131500D00CE013EA0C1FB0
:1018100000F025804FF00000F0BC81EA030101F0E8
:101820000041BDE80081F0BCBDE8004181EA030150
:1018300000F0ECB9F0BCBDE8004170B500F098F9DB
:10184000097EFC3E00F007B881EA03014FF000007A
:1018500001F00041704781EA030100F0D7B9F0BC04
:10186000BDE800414FF0000021497047FFFDFBF942
:10187000F7F5F4F2F0EEEDEBE9E8E6E4E3E1E0DEC3
:10188000DDDBDAD8D7D5D4D3D1D0CFCDCCCBCAC835
:10189000C7C6C5C4C2C1C0BFBEBDBCBBBAB9B8B75C
:1018A000B6B5B4B3B2B1B0AFAEADACABAAA9A8A84F
:1018B000A7A6A5A4A3A3A2A1A09F9F9E9D9C9C9B1D
:1018C0009A999998979796959594939392919190C8
:1018D0008F8F8E8E8D8C8C8B8B8A89898888878759
:1018E0008685858484838382828181800000FF07CE
:1018F0000000F87F51EA030C17D41CF5801F58BF75
:10190000BCF5801F00F10680994218BF704708BFE0
:101910009042704707D711F5801F58BF13F5801FFD
:1019200019D499427047894270471CF5801F08D529
:10193000BCF5801FF7D58B4218BF704708BF8242A5
:1019400070474FF4001C1CEB410F38BF1CEB430FDA
:1019500001D28B42704770B500F00AF99224490019
:101960004FF000514FF08053FFF760BE4FEA115324
:10197000A3F58063D3F11E03A8BFD3F1200C08DBCD
:101980004FF0004242EAC12252EA505232FA03F0CA
:10199000704709420BD4102BC4BF0020704703F5D9
:1019A000787CBCF1FF3F05D04FF0FF3070474FF01F
:1019B0000000704770B500F0DBF800BF499224804A
:1019C00000207047F0E710F0004248BF4042B0FAF4
:1019D00080F310FA03F10AD0C3F11D0303F580630D
:1019E0004FEA415002EB035202EBD12170474FF016
:1019F00000007047B0FA80F310FA03F10AD0C3F187
:101A00001D0303F580634FEA41504FEA035202EB96
:101A1000D12170474FF0000070470000DFF848C147
:101A200070B51CEA111E1EBF1CEA13159EEA0C0FAE
:101A300095EA0C0F00F06F8081EA030423EA4C134F
:101A40004EEAD47E21EA4C1141F4801143F4801314
:101A5000AE44A1FB024CA0FB0365AEF17F7E3619BC
:101A600055EB0C05A1FB034C4CF10003A0FB021C41
:101A700016EB0C06654153F10003094218BF46F00E
:101A8000010613F4007F0BD14FEA03314FEA053012
:101A9000340341EA155140EA16506FF003020AE0A0
:101AA0004FEAC3214FEAC520F40241EA555140EA0A
:101AB00056506FF0020202EB2E4201EB025585EA0E
:101AC000CE710AD05FEA440C18BF24F0004450F1F4
:101AD000000041F1000120EAD47040F2FE7C624532
:101AE00000D270BDA84214BF4FF080444FF0404474
:101AF000002E08BF0024BEF1806FA8BFA1F1C04135
:101B0000BDE8704080F282804FF0000001F1C041DA
:101B100001F0004170479EEA0C0F0CEA131518BF44
:101B200095EA0C0F06D04FF0000081EA030E0EF08C
:101B3000004170BD00F01CF88900013E00F007B8BC
:101B400000F009B84FEA430C5FEA5C5C08D081EA18
:101B5000030100F05BB84FEA410C5FEA5C5CF6D130
:101B60004FF00000014970470000FF070000F87FB8
:101B70000EF1020E2EF0030E5EF8046B364205D411
:101B8000012A43EB030515F5001F12D8012841EB8C
:101B9000010C1CF5001F0CD80ED14FEAD17C15F5B5
:101BA000001F0CEB4C0C0CF1020C08BF4CEBD37C6F
:101BB00004E04FF0080C01E04FEAD37C0CEB4C053D
:101BC00026FA05F606F00706B6F1040C06D20EEB6F
:101BD000860CBDE870404CF0010C6047DFE80CF06B
:101BE000090B02024FF000414FF00000A1F5002167
:101BF00070BD19461046012851EB010418BFD4F5F9
:101C0000001484BF002001F0004170BD0808A0F559
:101C100000114FEA3101704710B591EA030F48BF38
:101C200083F000433FF562AC841A71EB030C07D2DA
:101C300012198CF0004C43EB0C03001B61EB0C0100
:101C4000DFF8A4E14FEA1154A4EB135C1EEA430F42
:101C500018BF9EEA445F00F0B08023EA6E03524250
:101C600021EA0451C3EB6E0338BF5B1EDCF1200E8A
:101C700025D322FA0CFE10EB0E0043FA0CFE41EBCA
:101C80000E01CCF1200E03FA0EFE10EB0E0051F106
:101C90000001CCF1200E29D412FA0EF201EB04510E
:101CA000BDE8104058BF7047401C1CBFB2F1004F48
:101CB000704700280CBF491C20F00100704712EB50
:101CC000020E43EB030218BF4FF0010E4EEA420230
:101CD000ACF1200CDCF11E0E54D943FA0CFE10EBD3
:101CE0000E0051F1FF31CCF11E0ED5D50EF1010ED3
:101CF00012FA0EFE404141EB010101EB445C5FEA48
:101D00005C5C10D910EBDE7001EB045138BFBEF102
:101D1000004FBDE8104018BF704700280CBF491C99
:101D200020F00100704730D24FEAD42C11F5001199
:101D300024F400641BD0B1FA81F20B3AA41AA41E59
:101D4000D2F12003914030FA03F31943904001EBA4
:101D5000CC71002C01EB0451BDE81040A8BF7047C6
:101D600001F1C0414FF0000001F000417047B0FAAE
:101D700080F310FA03F100D110BDE41A173C4805B6
:101D8000C90AE4E701EB045110BD491001EB04510D
:101D9000BDE810404FEA300002E04FF0000170470C
:101DA0004A0008BF0042F8D0B2F5001F28BF7047B4
:101DB00001F000414FF0000070479EEA445F07D0F9
:101DC00011EA5E0FBDE8104004BF002100207047FB
:101DD000BDE8104070B5FFF7CBFE00BF40DFF63E18
:101DE00083F00041104670470000E0FF0000000053
:101DF00000000000000000000000040404040404CB
:101E00000004000000140A0A0000000000000000A6
:101E1000000014143F140A3F0A0A000000041E15B3
:101E200005060C14150F0400000012150D0A142CE1
:101E30002A1200000000040A0A1E151509360000C7
:101E40000002020100000000000000000020100855
:101E500008080808081020000002040808080808FC
:101E60000804020000000004150E0E150400000016
:101E700000000404041F040404000000000000002B
:101E8000000000000002020100000000001F00002E
:101E90000000000000000000000000000002000040
:101EA00000100808080404020202010000000E11DC
:101EB00011111111110E00000000040604040404A5
:101EC000040E000000000E1111080402011F0000A2
:101ED00000000E11100C1010110E00000000080C74
:101EE0000A0A091E0818000000001F01010F101047
:101EF000110E000000000E09010F1111110E00005B
:101F000000001F09080404040404000000000E116E
:101F1000110E1111110E000000000E1111111E10F2
:101F2000120E000000000000040000000004000089
:101F3000000000000004000000040400002010085D
:101F40000402040810200000000000001F00001F11
:101F50000000000000020408102010080402000025
:101F600000000E11110804040004000000000E110E
:101F70001915151D011E0000000004040C0A0A1E9C
:101F80001233000000000F12120E1212120F000086
:101F900000001E1101010101110E000000000F12CE
:101FA00012121212120F000000001F120A0E0A0273
:101FB000121F000000001F120A0E0A020207000092
:101FC00000001C1201013911120C00000000331234
:101FD000121E12121233000000001F040404040435
:101FE000041F000000003E08080808080809070050
:101FF000000037120A060A0A123700000000070222
:1020000002020202223F000000001B1B1B1B1515D1
:102010001515000000003B1216161A1A12170000C0
:1020200000000E1111111111110E000000000F120D
:10203000120E02020207000000000E11111111170A
:10204000190E180000000F12120E0A1212370000AB
:1020500000001E1101060810110F000000001F15DE
:1020600004040404040E00000000331212121212C1
:10207000120C000000003312120A0A0C04040000C3
:1020800000001515150E0A0A0A0A000000001B0AB6
:102090000A04040A0A1B000000001B0A0A040404C4
:1020A000040E000000001F0908040402121F0000B3
:1020B000001C04040404040404041C0000020202C2
:1020C0000404080808100000000E080808080808A2
:1020D00008080E0000040A000000000000000000D4
:1020E00000000000000000000000003F00040000AD
:1020F000000000000000000000000000000C121CA6
:10210000123C000000000302020E1212120E000028
:1021100000000000001C1202021C00000000181049
:10212000101C1212123C000000000000000C121ED5
:10213000021C000000003804041E0404041E0000F9
:1021400000000000003C120C021E221C00000302D2
:10215000020E1212123700000000040000060404F0
:10216000040E000000000800000C0808080808071A
:1021700000000302023A0A0E1237000000000704B2
:1021800004040404041F000000000000000F1515E3
:102190001515000000000000000F12121237000099
:1021A00000000000000C1212120C000000000000E1
:1021B000000F1212120E020700000000001C121283
:1021C000121C103800000000001B0602020700006D
:1021D00000000000001E020C101E000000000004A1
:1021E000040E04040418000000000000001B12127A
:1021F000123C0000000000000037120A0C0400002E
:10220000000000000015150E0A0A00000000000082
:10221000001B0A040A1B0000000000000037120A1D
:102220000C04040300000000001E0804041E00004B
:102230000018080808040808080818000808080812
:10224000080808080808080800060404040804042C
:102250000404060002251800000000000000000031
:102260008022000800000020880000006C010008A7
:102270000823000888000020A80600008801000844
:10228000000000000000000000000000000000004E
:10229000000000000000000000000000000000003E
:1022A000000000000000000000000000000000002E
:1022B000000000000000000000000000000000001E
:1022C000000000000000000000000000000000000E
:1022D00000000000000000000000000000000000FE
:1022E0000000000000000000CC002D0023000A00C8
:1022F000C8002201C800C800230000000000000040
:082300000000000000000000D5
:0400000508000131BD
:00000001FF
